:020000040000FA
:0400080010EF10F0F5
:0800180000EF20F0FFFFFFFFE5
:10002000FFFFFFFFFFFFFFFFFFFFFFFFFFFFFFFFE0
:10003000FFFFFFFFFFFFFFFFFFFFFFFFFFFFFFFFD0
:10004000FFFFFFFFFFFFFFFFFFFFFFFFFFFFFFFFC0
:10005000FFFFFFFFFFFFFFFFFFFFFFFFFFFFFFFFB0
:10006000FFFFFFFFFFFFFFFFFFFFFFFFFFFFFFFFA0
:0A007000FFFFFFFFFFFFFFFFFFFF90
:1020000000962000FA20008C2100322200CE22000F
:102010006A2300A62300EC2E000013EC17F0120038
:10202000D8CFE5FFE0CFE5FFE56EF3CFE5FFF4CFD6
:10203000E5FFE9CFE5FFEACFE5FFFACFE5FFFBCF0C
:10204000E5FFD9CFE5FFE1CFD9FFF6CFE5FFF7CF29
:10205000E5FFF8CFE5FFF5CFE5FF52EC17F0E4CF51
:10206000F5FFE4CFF8FFE4CFF7FFE4CFF6FFE4CFCE
:10207000D9FFE4CFFBFFE4CFFAFFE4CFEAFFE4CFE0
:10208000E9FFE4CFF4FFE4CFF3FFE450E4CFE0FF57
:10209000E4CFD8FF100012010002FF00FF08D804AF
:1020A000AAFE00010102030309021200010104C09B
:1020B000000904000000FFFFFF04090220000102E4
:1020C00005C0000904000002FFFFFF05070501022B
:1020D00040000007058202400000090220000103C1
:1020E00004C0000904000002FFFFFF06070501020B
:1020F00040000007058202400000A82000BA20002E
:10210000DA2000000403090426034A006500610088
:102110006E002D00500069006500720072006500BD
:1021200020004D0041004E0044004F004E002203AD
:10213000500069006E006700750069006E006F0056
:102140002000500072006F006A0065006300740098
:10215000040331001003440065006600610075004F
:102160006C0074000C0346006C0061007300680092
:102170001C03500069006E006700750069006E0066
:102180006F0020006100700070006C0004210008E6
:1021900021002E21005021005421006421007021D3
:1021A00000002E0000F02E00F02E00F02E00F02E89
:1021B00000F02E00F02E00F02E00F02E00F02E0089
:1021C000F02E00F02E00F02E00F02E00F02E00F089
:1021D0002E002E00003A0000420000F02E00F02EEB
:1021E00000F02E00F02E00F02E00F02E00F02E0059
:1021F000F02E00F02E00F02E00F02E00F02E00F059
:102200002E002E00004C2E00C42E00F02E00F02ECA
:1022100000F02E00F02E00F02E00F02E00F02E0028
:10222000F02E00F02E00F02E00F02E00F02E00F028
:102230002E00A22100A22100D221000222003200A1
:1022400000F02E00F02E00F02E00F02E00F02E00F8
:10225000F02E00F02E00F02E00F02E00F02E00F0F8
:102260002E00F02E00F02E00F02E00F02E00320096
:1022700000F02E00460000F02E00F02E00F02E00A0
:10228000F02E00F02E00F02E00F02E00F02E00F0C8
:102290002E00F02E00F02E00F02E00F02E00320066
:1022A00000F02E00782A00F02E00F02E00F02E0014
:1022B000F02E00F02E00F02E00F02E00F02E00F098
:1022C0002E00F02E00F02E00F02E00F02E003E2208
:1022D000003E22006E22009E22002E0000F02E0002
:1022E000F02E00F02E00F02E00F02E00F02E00F068
:1022F0002E00F02E00F02E00F02E00F02E00F02E1A
:1023000000F02E00F02E00F02E002E00003E000007
:10231000F02E00F02E00F02E00F02E00F02E00F037
:102320002E00F02E00F02E00F02E00F02E00F02EE9
:1023300000F02E00F02E00F02E002E0000482800A5
:10234000F02E00F02E00F02E00F02E00F02E00F007
:102350002E00F02E00F02E00F02E00F02E00F02EB9
:1023600000F02E00F02E00F02E00DA2200DA22001B
:102370000A23003A2300360000F02E00F02E00F071
:102380002E00F02E00F02E00F02E00F02E00F02E89
:1023900000F02E00F02E00F02E00F02E00F02E00A7
:1023A000F02E00F02E0076230076230076230076B0
:1023B0002300010204081020408040800102040133
:1023C00002040820100001010101010101010202C3
:1023D0000202020000000000000033300000D9CFEC
:1023E000E5FFE1CFD9FF00C0E5FF01C0E5FF02C076
:1023F000E5FF03C0E5FF04C0E5FF020EDBCF00F000
:10240000030EDBCF01F0C60E0024026E036A230E1A
:102410000322046A000E042202C0F6FF03C0F7FF85
:1024200004C0F8FF0900F5CF02F0030E025CD8B03B
:102430009AD0FA6AFB6A0234FA36E834FA36FC0BB0
:10244000500FE56E240EFA22000EFB22E450F96EC6
:102450002EEF12F05BEF12F088EF12F0015015E052
:10246000B20E0024026E036A230E0322046A000ED9
:10247000042202C0F6FF03C0F7FF04C0F8FF090002
:10248000F5CF02F0025092126ED0B20E0024026E0E
:10249000036A230E0322046A000E042202C0F6FF20
:1024A00003C0F7FF04C0F8FF0900F5CF02F00250A7
:1024B000FF08921658D0015015E0B20E0024026EAB
:1024C000036A230E0322046A000E042202C0F6FFF0
:1024D00003C0F7FF04C0F8FF0900F5CF02F0025077
:1024E000931241D0B20E0024026E036A230E03221F
:1024F000046A000E042202C0F6FF03C0F7FF04C006
:10250000F8FF0900F5CF02F00250FF0893162BD018
:10251000015015E0B20E0024016E026A230E022261
:10252000036A000E032201C0F6FF02C0F7FF03C0DA
:10253000F8FF0900F5CF01F00150941214D0016AA0
:10254000026AB20E0026230E0122000E022200C0F3
:10255000F6FF01C0F7FF02C0F8FF0900F5CF00F059
:102560000050FF089416E4CF04F0E4CF03F0E4CF6A
:1025700002F0E4CF01F0E4CF00F0E4CFD9FF120085
:10258000D9CFE5FFE1CFD9FF00C0E5FF01C0E5FFEE
:1025900002C0E5FF03C0E5FF04C0E5FF020EDBCF8C
:1025A00000F0030EDBCF01F0C60E0024026E036ABA
:1025B000230E0322046A000E042202C0F6FF03C0A9
:1025C000F7FF04C0F8FF0900F5CF02F0030E025C2C
:1025D000D8B09AD0FA6AFB6A0234FA36E834FA368E
:1025E000FC0BF20FE56E250EFA22000EFB22E450E2
:1025F000F96EFFEF12F02CEF13F059EF13F00150CA
:1026000015E0B20E0024026E036A230E0322046A50
:10261000000E042202C0F6FF03C0F7FF04C0F8FF5B
:102620000900F5CF02F0025089126ED0B20E0024DC
:10263000026E036A230E0322046A000E042202C003
:10264000F6FF03C0F7FF04C0F8FF0900F5CF02F062
:102650000250FF08891658D0015015E0B20E002430
:10266000026E036A230E0322046A000E042202C0D3
:10267000F6FF03C0F7FF04C0F8FF0900F5CF02F032
:1026800002508A1241D0B20E0024026E036A230E59
:102690000322046A000E042202C0F6FF03C0F7FF03
:1026A00004C0F8FF0900F5CF02F00250FF088A16B7
:1026B0002BD0015015E0B20E0024016E026A230EE9
:1026C0000222036A000E032201C0F6FF02C0F7FFD8
:1026D00003C0F8FF0900F5CF01F001508B1214D0B0
:1026E000016A026AB20E0026230E0122000E0222A7
:1026F00000C0F6FF01C0F7FF02C0F8FF0900F5CFE8
:1027000000F00050FF088B16E4CF04F0E4CF03F094
:10271000E4CF02F0E4CF01F0E4CF00F0E4CFD9FF42
:102720001200D9CFE5FFE1CFD9FF00C0E5FF01C01E
:10273000E5FF02C0E5FF03C0E5FF020EDBCF00F0BE
:10274000C60E0024016E026A230E0222036A000EE6
:10275000032201C0F6FF02C0F7FF03C0F8FF090023
:10276000F5CF01F0030E015CD8B062D0FA6AFB6AC3
:102770000134FA36E834FA36FC0B8A0FE56E270E80
:10278000FA22000EFB22E450F96ECBEF13F0E5EFD6
:1027900013F0FFEF13F0B20E0024016E026A230E55
:1027A0000222036A000E032201C0F6FF02C0F7FFF7
:1027B00003C0F8FF0900F5CF01F080500116015069
:1027C00002E0010E36D0E86A34D0B20E0024016E69
:1027D000026A230E0222036A000E032201C0F6FFE2
:1027E00002C0F7FF03C0F8FF0900F5CF01F08150E8
:1027F0000116015002E0010E1CD0E86A1AD0016AED
:10280000026AB20E0026230E0122000E022200C030
:10281000F6FF01C0F7FF02C0F8FF0900F5CF00F096
:1028200082500016005002E0010E03D0E86A01D089
:10283000E86AE4CF03F0E4CF02F0E4CF01F0E4CFA4
:1028400000F0E4CFD9FF120000C0E5FF01C0E5FFB2
:1028500002C0E5FF03C0E5FF010E0401095DD8A039
:1028600047D0400E095DD8B043D0006A0401095139
:10287000005C32E2400E0024016E026A060E022263
:1028800001C0E9FF02C0EAFFEFCF01F002014751AA
:102890003F0A04E002014729026E02D0010E026ED7
:1028A0000201485102180FE047C202F00201472B13
:1028B000036A000E0226020E032202C0E9FF03C0D3
:1028C000EAFF01C0EFFF02014751400A03E1010E98
:1028D0000201476F002ACAD7400E0401096F08BDE4
:1028E00003D0C80E086F0DD0880E0401086F09D000
:1028F000400E0401096F400E0A6F060E0B6F840E26
:10290000086FE4CF03F0E4CF02F0E4CF01F0E4CFAE
:1029100000F01200D9CFE5FFE1CFD9FF00C0E5FFFD
:1029200001C0E5FF02C0E5FF03C0E5FF04C0E5FF0D
:1029300005C0E5FF06C0E5FF07C0E5FF08C0E5FFED
:10294000020EDBCF00F0030EDBCF01F0040EDBCF75
:1029500002F0036A13EC17F0046E04502BE003C07E
:1029600004F0032A056A066A005004260150052275
:102970000250062248C207F00201482B086A000EE6
:102980000726020E082207C0E9FF08C0EAFFEFCFC2
:1029900007F007C0E5FF04C0E9FF05C0F3FF0650DC
:1029A00031EC00F002014851400AD4E1010E02016D
:1029B000486FD0D70350E4CF08F0E4CF07F0E4CF5E
:1029C00006F0E4CF05F0E4CF04F0E4CF03F0E4CF69
:1029D00002F0E4CF01F0E4CF00F0E4CFD9FF120021
:1029E000B60EF66E2E0EF76E000EF86E0900F5505C
:1029F000056E0900F550066E055002E106503BE0F9
:102A00000900F550006E0900F550016E0900F550FF
:102A1000026E09000900F550E96E0900F550EA6EF2
:102A2000090009000900F550036E0900F550046E15
:102A300009000900F6CF07F0F7CF08F0F8CF09F04A
:102A400000C0F6FF01C0F7FF02C0F8FF035002E12B
:102A5000045007E00900F550EE6E0306F8E20406A4
:102A6000F9D707C0F6FF08C0F7FF09C0F8FF050651
:102A7000C4E20606C5D7120002014351441103E126
:102A8000020146512CE1000E0201445D02E1400EBC
:102A9000435DD8700201466B463702014351040181
:102AA000156F800EE56E020EE56E430EE56EE56A6B
:102AB000400EE56E800EE56E020EE56E400EE56E90
:102AC000020EE56E15EC00F0090EE126040114BDBE
:102AD00003D0C80E146F03D0880E0401146F1200C7
:102AE000000E0201445D02E1400E435DD870020118
:102AF000466B4637020143510401156F000E166FF5
:102B0000060E176F800EE56E020EE56E430EE56E43
:102B1000E56A400EE56E800EE56E020EE56E400E33
:102B2000E56E020EE56E15EC00F0090EE1260401DB
:102B300014BD03D0C80E146F03D0880E0401146FA7
:102B40001200D9CFE5FFE1CFD9FF00C0E5FF01C0FA
:102B5000E5FF02C0E5FF03C0E5FF020EDBCF00F09A
:102B6000030EDBCF01F0040EDBCF02F0050EDBCF4E
:102B700003F00350E56E0250E56E0150E56E005023
:102B8000E56EC3EC16F0040EE126E4CF03F0E4CFCB
:102B900002F0E4CF01F0E4CF00F0E4CFD9FF12005F
:102BA000D9CFE5FFE1CFD9FF00C0E5FF01C0E5FFC8
:102BB00002C0E5FF03C0E5FF020EDBCF00F0030E0D
:102BC000DBCF01F0040EDBCF02F0050EDBCF03F00C
:102BD0000350E56E0250E56E0150E56E0050E56E63
:102BE000C3EC16F0040EE126E4CF03F0E4CF02F0CC
:102BF000E4CF01F0E4CF00F0E4CFD9FF1200D9CF49
:102C0000E5FFE1CFD9FF00C0E5FF01C0E5FF02C04D
:102C1000E5FF03C0E5FF020EDBCF00F0030EDBCFC4
:102C200001F0026A036A0150035C02E10050025C99
:102C300006E20C0E39EC00F0024A032AF4D7E4CF86
:102C400003F0E4CF02F0E4CF01F0E4CF00F0E4CFF2
:102C5000D9FF1200D9CFE5FFE1CFD9FF00C0E5FFD2
:102C600001C0E5FF02C0E5FF03C0E5FF020EDBCFB8
:102C700000F0030EDBCF01F0026A036A0150035C2F
:102C800002E10050025C03E2024A032AF7D7E4CFD4
:102C900003F0E4CF02F0E4CF01F0E4CF00F0E4CFA2
:102CA000D9FF1200D9CFE5FFE1CFD9FF00C0E5FF82
:102CB00001C0E5FF02C0E5FF020EDBCF00F0030E0E
:102CC000DBCF01F0040EDBCF02F00250E56E0150C5
:102CD000E56E0050E56E8AEC14F0006E030EE126FE
:102CE0000050E4CF02F0E4CF01F0E4CF00F0E4CFF5
:102CF000D9FF120000C0E5FF01C0E5FF02C0E5FFFB
:102D0000006A26502E10001015E048C201F00201A2
:102D1000482B026A000E0126020E022201C0E9FFC2
:102D200002C0EAFFEFCF00F04851400A03E1010E74
:102D30000201486F0050E4CF02F0E4CF01F0E4CF8D
:102D400000F01200D9CFE5FFE1CFD9FF00C0E5FFC9
:102D500001C0E5FF020EDBCF00F00050E56E91EC04
:102D600013F0016EE65201700150E56E0050E56E01
:102D7000C0EC12F0E652E652E4CF01F0E4CF00F0EE
:102D8000E4CFD9FF1200D9CFE5FFE1CFD9FF00C0D2
:102D9000E5FF020EDBCF40F2030EDBCF41F2040E63
:102DA000DBCF42F2050EDBCF00F000C043F20201A0
:102DB000446B70EC15F0E4CF00F0E4CFD9FF1200C3
:102DC000020EE56E000EE56E230EE56EDA0EE56E80
:102DD000A1EC15F0040EE126120EE56EA2EC16F041
:102DE000E652030EE56EE80EE56EFFEC15F0E652D6
:102DF000E6521200D0B202D0930ED012D350030B81
:102E0000800F7D0F02E3D3A4FED7F29EF29C37EC35
:102E100017F06EEC17F068EC17F07AEC17F0E0ECB6
:102E200016F0FDD7120000C0E5FF006A020147510D
:102E30000201481901E1002A0050D880E866D890C4
:102E4000006A00360050E4CF00F01200400E04018A
:102E5000096F400E0A6F060E0B6F880E086F1C0E6E
:102E6000716E010E0201476F0201486F1200896AFC
:102E70008A6A400E8B6E926A936A949094929494AC
:102E8000949C949E806A816A826A120011EEFFF01F
:102E900021EEFFF0F86AA68EA69CF0EC14F0FAEC96
:102EA00016F0FFD7A1AA06D00FEC00F0689C68903E
:102EB000A19A6A6A12000100F22E00004502000089
:102EC00001000000480E0401146F1A0E726E120009
:102ED000A19AA08AA28AF28EF28C12000F0EC16E05
:102EE000070EB46E12007AEC16F0120046EF17F0DF
:062EF000120000001200B8
:10400000D8CFE5FFE0CFE5FFE56EF3CFE5FFF4CFD6
:10401000E5FFE9CFE5FFEACFE5FFFACFE5FFFBCF0C
:10402000E5FFD9CFE5FFE1CFD9FFF6CFE5FFF7CF29
:10403000E5FFF8CFE5FFF5CFE5FFE4CFF5FFE4CFEF
:10404000F8FFE4CFF7FFE4CFF6FFE4CFD9FFE4CFEA
:10405000FBFFE4CFFAFFE4CFEAFFE4CFE9FFE4CFD0
:10406000F4FFE4CFF3FFE450E4CFE0FFE4CFD8FF68
:0240700010003E
:00000001FF
