:020000040000FA
:0400080010EF10F0F5
:0800180000EF20F0FFFFFFFFE5
:10002000FFFFFFFFFFFFFFFFFFFFFFFFFFFFFFFFE0
:10003000FFFFFFFFFFFFFFFFFFFFFFFFFFFFFFFFD0
:10004000FFFFFFFFFFFFFFFFFFFFFFFFFFFFFFFFC0
:10005000FFFFFFFFFFFFFFFFFFFFFFFFFFFFFFFFB0
:10006000FFFFFFFFFFFFFFFFFFFFFFFFFFFFFFFFA0
:0A007000FFFFFFFFFFFFFFFFFFFF90
:1020000000962000FA20008C2100322200CE22000F
:102010006A2300A623002E3300001EEC19F01200E4
:10202000D8CFE5FFE0CFE5FFE56EF3CFE5FFF4CFD6
:10203000E5FFE9CFE5FFEACFE5FFFACFE5FFFBCF0C
:10204000E5FFD9CFE5FFE1CFD9FFF6CFE5FFF7CF29
:10205000E5FFF8CFE5FFF5CFE5FF66EC19F0E4CF3B
:10206000F5FFE4CFF8FFE4CFF7FFE4CFF6FFE4CFCE
:10207000D9FFE4CFFBFFE4CFFAFFE4CFEAFFE4CFE0
:10208000E9FFE4CFF4FFE4CFF3FFE450E4CFE0FF57
:10209000E4CFD8FF100012010002FF00FF08D804AF
:1020A000AAFE00010102030309021200010104C09B
:1020B000000904000000FFFFFF04090220000102E4
:1020C00005C0000904000002FFFFFF05070501022B
:1020D00040000007058202400000090220000103C1
:1020E00004C0000904000002FFFFFF06070501020B
:1020F00040000007058202400000A82000BA20002E
:10210000DA2000000403090426034A006500610088
:102110006E002D00500069006500720072006500BD
:1021200020004D0041004E0044004F004E002203AD
:10213000500069006E006700750069006E006F0056
:102140002000500072006F006A0065006300740098
:10215000040331001003440065006600610075004F
:102160006C0074000C0346006C0061007300680092
:102170001C03500069006E006700750069006E0066
:102180006F0020006100700070006C0004210008E6
:1021900021002E21005021005421006421007021D3
:1021A00000002E000032330032330032330032336D
:1021B0000032330032330032330032330032330026
:1021C00032330032330032330032330032330032E4
:1021D00033002E00003A0000420000323300323358
:1021E00000323300323300323300323300323300F6
:1021F00032330032330032330032330032330032B4
:1022000033002E0000623200FA32003233003233E3
:1022100000323300323300323300323300323300C5
:102220003233003233003233003233003233003283
:102230003300A22100A22100D2210002220032009C
:102240000032330032330032330032330032330095
:102250003233003233003233003233003233003253
:102260003300323300323300323300323300320075
:102270000032330046000032330032330032330084
:102280003233003233003233003233003233003223
:102290003300323300323300323300323300320045
:1022A00000323300D02E003233003233003233009C
:1022B00032330032330032330032330032330032F3
:1022C00033003233003233003233003233003E22E7
:1022D000003E22006E22009E22002E0000323300BB
:1022E00032330032330032330032330032330032C3
:1022F00033003233003233003233003233003233B2
:10230000003233003233003233002E00003E000032
:102310003233003233003233003233003233003292
:102320003300323300323300323300323300323381
:10233000003233003233003233002E0000722900A5
:102340003233003233003233003233003233003262
:102350003300323300323300323300323300323351
:1023600000323300323300323300DA2200DA220046
:102370000A23003A230036000032330032330032A1
:102380003300323300323300323300323300323321
:102390000032330032330032330032330032330044
:1023A0003233003233007623007623007623007622
:1023B0002300010204081020408040800102040133
:1023C00002040820100001010101010101010202C3
:1023D00002020200000000000000D9CFE5FFE1CFBB
:1023E000D9FF00C0E5FF01C0E5FF02C0E5FF03C063
:1023F000E5FF04C0E5FF05C0E5FF06C0E5FF07C037
:10240000E5FF08C0E5FF09C0E5FF0AC0E5FF0BC016
:10241000E5FF0CC0E5FF0DC0E5FF0EC0E5FF0FC0F6
:10242000E5FF020EDBCF00F0030EDBCF01F0040E60
:10243000DBCF02F0050EDBCF03F0060EDBCF04F09E
:10244000070EDBCF05F0080EDBCF06F0200E076E7F
:10245000086A06C009F00A6A0B6A0C6AE56AE56A4E
:10246000E56A0950E56E0350E56E0250E56E0150D5
:10247000E56E0050E56E9AEC13F00D6E080EE12645
:10248000300E0D263A0E0D5C05E30D500E6E270E34
:102490000E240D6EFF0E07260822800E07240E6EF6
:1024A000020E08200F6E0EC0E9FF0FC0EAFF0DC03C
:1024B000EFFF0C50E56E0B50E56E0A50E56E0950CB
:1024C000E56E0350E56E0250E56E0150E56E00507A
:1024D000E56E2DEC14F0006EF3CF01F0F4CF02F0B6
:1024E000E9CF03F0080EE12600500110021003109E
:1024F000D8A4AFD707C000F008C001F004C002F0B4
:1025000005C003F000C004F001C005F0004A012A34
:10251000800E0426020E052204C0E9FF05C0EAFF72
:10252000EFCF04F002C0E9FF03C0EAFF04C0EFFFF1
:10253000024A032A000E015C02E1200E005CE2E385
:1025400002C0E9FF03C0EAFF000EEF6AE4CF0FF01C
:10255000E4CF0EF0E4CF0DF0E4CF0CF0E4CF0BF0BD
:10256000E4CF0AF0E4CF09F0E4CF08F0E4CF07F0BD
:10257000E4CF06F0E4CF05F0E4CF04F0E4CF03F0BD
:10258000E4CF02F0E4CF01F0E4CF00F0E4CFD9FFD4
:102590001200D9CFE5FFE1CFD9FF00C0E5FF01C0B0
:1025A000E5FF02C0E5FF03C0E5FF04C0E5FF020E42
:1025B000DBCF00F0030EDBCF01F0C60E0024026E6D
:1025C000036A230E0322046A000E042202C0F6FFEF
:1025D00003C0F7FF04C0F8FF0900F5CF02F0030EB7
:1025E000025CD8B09AD0FA6AFB6A0234FA36E83450
:1025F000FA36FC0B040FE56E260EFA22000EFB22C3
:10260000E450F96E08EF13F035EF13F062EF13F0BA
:10261000015015E0B20E0024026E036A230E03225D
:10262000046A000E042202C0F6FF03C0F7FF04C0D4
:10263000F8FF0900F5CF02F0025092126ED0B20EF0
:102640000024026E036A230E0322046A000E042291
:1026500002C0F6FF03C0F7FF04C0F8FF0900F5CF82
:1026600002F00250FF08921658D0015015E0B20E49
:102670000024026E036A230E0322046A000E042261
:1026800002C0F6FF03C0F7FF04C0F8FF0900F5CF52
:1026900002F00250931241D0B20E0024026E036A7F
:1026A000230E0322046A000E042202C0F6FF03C0B8
:1026B000F7FF04C0F8FF0900F5CF02F00250FF0851
:1026C00093162BD0015015E0B20E0024016E026A61
:1026D000230E0222036A000E032201C0F6FF02C08D
:1026E000F7FF03C0F8FF0900F5CF01F00150941285
:1026F00014D0016A026AB20E0026230E0122000ED7
:10270000022200C0F6FF01C0F7FF02C0F8FF090077
:10271000F5CF00F00050FF089416E4CF04F0E4CFAA
:1027200003F0E4CF02F0E4CF01F0E4CF00F0E4CF17
:10273000D9FF1200D9CFE5FFE1CFD9FF00C0E5FFF7
:1027400001C0E5FF02C0E5FF03C0E5FF04C0E5FFEF
:1027500005C0E5FF06C0E5FF07C0E5FF08C0E5FFCF
:1027600009C0E5FF0AC0E5FF020EDBCF00F0030E53
:10277000DBCF01F0040EDBCF02F0050EDBCF03F060
:10278000060EDBCF04F0070EDBCF05F0080EDBCF23
:1027900006F0090EDBCF07F0086A096A0750800BC4
:1027A000E8440A6E0A501BE104500426053606363A
:1027B00007360750035C08E10650025C05E105504E
:1027C000015C02E10450005C06E2D8900732063258
:1027D0000532043204D0092A09C008F0DFD70750B7
:1027E000035C08E10650025C05E10550015C02E172
:1027F0000450005C08E30450005E0550015A065086
:10280000025A0750035AD890073206320532043272
:1028100008C009F008060950E2E103C0E9FF02C060
:10282000F4FF01C0F3FF0050E4CF0AF0E4CF09F059
:10283000E4CF08F0E4CF07F0E4CF06F0E4CF05F0F2
:10284000E4CF04F0E4CF03F0E4CF02F0E4CF01F0F2
:10285000E4CF00F0E4CFD9FF1200D9CFE5FFE1CFFC
:10286000D9FF00C0E5FF01C0E5FF02C0E5FF03C0DE
:10287000E5FF04C0E5FF05C0E5FF06C0E5FF07C0B2
:10288000E5FF08C0E5FF09C0E5FF0AC0E5FF0BC092
:10289000E5FF0CC0E5FF0DC0E5FF020EDBCF00F049
:1028A000030EDBCF01F0040EDBCF02F0050EDBCF11
:1028B00003F0060EDBCF04F0070EDBCF05F0080EA9
:1028C000DBCF06F0090EDBCF07F0086A096A0A6A57
:1028D0000B6A200E0C6E0350800BE8440D6E005006
:1028E00000260136023603360850082609360A3615
:1028F0000B360D50D8A4088007500B5C08E1065039
:102900000A5C05E10550095C02E10450085C09E33A
:102910000450085E0550095A06500A5A07500B5ACF
:1029200000800C2ED8D703C0E9FF02C0F4FF01C01D
:10293000F3FF0050E4CF0DF0E4CF0CF0E4CF0BF048
:10294000E4CF0AF0E4CF09F0E4CF08F0E4CF07F0D9
:10295000E4CF06F0E4CF05F0E4CF04F0E4CF03F0D9
:10296000E4CF02F0E4CF01F0E4CF00F0E4CFD9FFF0
:10297000120000C0E5FF01C0E5FF02C0E5FF03C093
:10298000E5FF010E0401095DD8A047D0400E095DA6
:10299000D8B043D0006A04010951005C32E2400E15
:1029A0000024016E026A060E022201C0E9FF02C085
:1029B000EAFFEFCF01F00201A9513F0A04E0020152
:1029C000A929026E02D0010E026E0201AA5102185C
:1029D0000FE0A9C202F00201A92B036A000E022631
:1029E000020E032202C0E9FF03C0EAFF01C0EFFFAD
:1029F0000201A951400A03E1010E0201A96F002A58
:102A0000CAD7400E0401096F08BD03D0C80E086F75
:102A10000DD0880E0401086F09D0400E0401096F23
:102A2000400E0A6F060E0B6F840E086FE4CF03F0A2
:102A3000E4CF02F0E4CF01F0E4CF00F01200D9CFF0
:102A4000E5FFE1CFD9FF00C0E5FF01C0E5FF02C00F
:102A5000E5FF03C0E5FF04C0E5FF05C0E5FF06C0D4
:102A6000E5FF07C0E5FF08C0E5FF020EDBCF00F081
:102A7000030EDBCF01F0040EDBCF02F0036A1EEC85
:102A800019F0046E04502BE003C004F0032A056A19
:102A9000066A005004260150052202500622AAC2EE
:102AA00007F00201AA2B086A000E0726020E082270
:102AB00007C0E9FF08C0EAFFEFCF07F007C0E5FF56
:102AC00004C0E9FF05C0F3FF065031EC00F002013D
:102AD000AA51400AD4E1010E0201AA6FD0D70350D7
:102AE000E4CF08F0E4CF07F0E4CF06F0E4CF05F040
:102AF000E4CF04F0E4CF03F0E4CF02F0E4CF01F040
:102B0000E4CF00F0E4CFD9FF1200D9CFE5FFE1CF49
:102B1000D9FF00C0E5FF01C0E5FF02C0E5FF03C02B
:102B2000E5FF04C0E5FF020EDBCF00F0030EDBCFB4
:102B300001F0040EDBCF02F000500B0A20E0005041
:102B40000C0A38E10C0EBD6ED8900230036E0130D5
:102B5000006ED890033200320050BE6E006A030E41
:102B60000214036EF00E0016003A033A0314002616
:102B7000BDCF04F0045000120050BD6E1BD00C0EEF
:102B8000BA6ED8900230036E0130006ED8900332D6
:102B900000320050BB6E016A030E0216F00E0116E1
:102BA000013A023A02140126BACF00F00050011295
:102BB0000150BA6E9E92E4CF04F0E4CF03F0E4CF6C
:102BC00002F0E4CF01F0E4CF00F0E4CFD9FF12002F
:102BD000D9CFE5FFE1CFD9FF00C0E5FF01C0E5FF98
:102BE00002C0E5FF03C0E5FF04C0E5FF05C0E5FF47
:102BF00006C0E5FF020EDBCF00F0030EDBCF01F0D5
:102C0000040EDBCF02F0050EDBCF03F0060EDBCFA8
:102C100004F0070EDBCF05F0080EDBCF06F0D880FE
:102C200003AED89015E306500A0A12E104C0E9FF8A
:102C300005C0EAFF2D0EEF6E044A052A031E021E90
:102C4000011E006C05E1012A03E1022AD8B4032A1F
:102C50000650E56E0550E56E0450E56E0350E56ED6
:102C60000250E56E0150E56E0050E56EEDEC11F09E
:102C7000070EE126E4CF06F0E4CF05F0E4CF04F040
:102C8000E4CF03F0E4CF02F0E4CF01F0E4CF00F0B2
:102C9000E4CFD9FF1200D9CFE5FFE1CFD9FF00C0C3
:102CA000E5FF01C0E5FF02C0E5FF03C0E5FF020E3E
:102CB000DBCF00F00D0E005C0BE3150E005C08E2AC
:102CC000F30E0024016E0144E844FC0BC26E07D0F1
:102CD000060E005C04E20044E844FC0BC26EC280B5
:102CE000090E006E016A0000FF0E0026012200504E
:102CF0000110F9E1C282C2B2FED7C4CF00F0016A6E
:102D00000050036E026AC3CF00F0016A0050022631
:102D100001500322C29003C0F3FF0250E4CF03F03E
:102D2000E4CF02F0E4CF01F0E4CF00F0E4CFD9FF2C
:102D30001200EC0EF66E320EF76E000EF86E090001
:102D4000F550056E0900F550066E055002E106507B
:102D50003BE00900F550006E0900F550016E0900D6
:102D6000F550026E09000900F550E96E0900F550B2
:102D7000EA6E090009000900F550036E0900F550DC
:102D8000046E09000900F6CF07F0F7CF08F0F8CF7E
:102D900009F000C0F6FF01C0F7FF02C0F8FF0350C2
:102DA00002E1045007E00900F550EE6E0306F8E278
:102DB0000406F9D707C0F6FF08C0F7FF09C0F8FFFF
:102DC0000506C4E20606C5D71200D9CFE5FFE1CF5C
:102DD000D9FF00C0E5FF01C0E5FF02C0E5FF03C069
:102DE000E5FF04C0E5FF05C0E5FF06C0E5FF020EF4
:102DF000DBCF00F0030EDBCF01F0040EDBCF02F0DF
:102E0000050EDBCF03F0060EDBCF04F0E86A01BE4F
:102E1000FF0E056E066E0450E56E0350E56E02501F
:102E2000E56E0650E56E0550E56E0150E56E00500A
:102E3000E56EE8EC15F0070EE126E4CF06F0E4CFEE
:102E400005F0E4CF04F0E4CF03F0E4CF02F0E4CFE8
:102E500001F0E4CF00F0E4CFD9FF1200D9CFE5FFB5
:102E6000E1CFD9FF00C0E5FF01C0E5FF02C0E5FFEB
:102E700003C0E5FF04C0E5FF020EDBCF00F0030E48
:102E8000DBCF01F0040EDBCF02F0050EDBCF03F049
:102E9000060EDBCF04F00450E56E0350E56E0250E1
:102EA000E56EE56AE56A0150E56E0050E56EEDEC11
:102EB00011F0070EE126E4CF04F0E4CF03F0E4CFF5
:102EC00002F0E4CF01F0E4CF00F0E4CFD9FF12002C
:102ED0000201A651A71103E10201A8512CE1000E45
:102EE0000201A75D02E1400EA65DD8700201A86B49
:102EF000A8370201A6510401156F800EE56E020E7F
:102F0000E56EA60EE56EE56A400EE56E800EE56E96
:102F1000020EE56EA30EE56E020EE56E15EC00F0F6
:102F2000090EE126040114BD03D0C80E146F03D0AE
:102F3000880E0401146F1200000E0201A75D02E169
:102F4000400EA65DD8700201A86BA8370201A651F9
:102F50000401156F000E166F060E176F800EE56EDA
:102F6000020EE56EA60EE56EE56A400EE56E800E79
:102F7000E56E020EE56EA30EE56E020EE56E15EC33
:102F800000F0090EE126040114BD03D0C80E146F31
:102F900003D0880E0401146F1200D9CFE5FFE1CFF2
:102FA000D9FF00C0E5FF01C0E5FF02C0E5FF03C097
:102FB000E5FF020EDBCF00F0030EDBCF01F0040EC5
:102FC000DBCF02F0050EDBCF03F00350E56E0250BD
:102FD000E56E0150E56E0050E56ED2EC18F0040E7F
:102FE000E126E4CF03F0E4CF02F0E4CF01F0E4CF38
:102FF00000F0E4CFD9FF1200D9CFE5FFE1CFD9FF30
:1030000000C0E5FF01C0E5FF02C0E5FF03C0E5FF2A
:10301000020EDBCF00F0030EDBCF01F0040EDBCF9E
:1030200002F0050EDBCF03F00350E56E0250E56EB3
:103030000150E56E0050E56ED2EC18F0040EE1266A
:10304000E4CF03F0E4CF02F0E4CF01F0E4CF00F0EE
:10305000E4CFD9FF12000D0EE56E4BEC16F0020125
:10306000A16FF3CFA2F2E6520A0EE56E020EE56EF4
:10307000400EE56EA251E56EA151E56EE5EC16F04D
:10308000050EE126040EE56E800EE56E020EE56E7D
:10309000400EE56ECDEC17F0040EE126010EE56E54
:1030A000F40EE56E57EC18F0E652E6521200D9CF56
:1030B000E5FFE1CFD9FF00C0E5FF01C0E5FF02C099
:1030C000E5FF03C0E5FF020EDBCF00F0030EDBCF10
:1030D00001F0026A036A0150035C02E10050025CE5
:1030E00006E20C0E39EC00F0024A032AF4D7E4CFD2
:1030F00003F0E4CF02F0E4CF01F0E4CF00F0E4CF3E
:10310000D9FF1200D9CFE5FFE1CFD9FF00C0E5FF1D
:1031100001C0E5FF02C0E5FF020EDBCF00F0030EA9
:10312000DBCF01F0040EDBCF02F00250E56E015060
:10313000E56E0050E56E1FEC15F0006E030EE12603
:103140000050E4CF02F0E4CF01F0E4CF00F0E4CF90
:10315000D9FF120000C0E5FF01C0E5FF02C0E5FF96
:10316000006A3C503210001015E0AAC201F00201C2
:10317000AA2B026A000E0126020E022201C0E9FFFC
:1031800002C0EAFFEFCF00F0AA51400A03E1010EAE
:103190000201AA6F0050E4CF02F0E4CF01F0E4CFC7
:1031A00000F01200D9CFE5FFE1CFD9FF00C0E5FF65
:1031B000020EDBCFA3F2030EDBCFA4F2040EDBCFB3
:1031C000A5F2050EDBCF00F000C0A6F20201A76B4E
:1031D0009CEC17F0E4CF00F0E4CFD9FF1200D0B29E
:1031E00002D0930ED012D350030B800F7D0F02E359
:1031F000D3A4FED7F29EF29C42EC19F089EC19F0B0
:1032000083EC19F06FEC19F05DEC19F02BEC18F071
:10321000FDD71200D9CFE5FFE1CFD9FF00C0E5FF10
:10322000020EDBCF00F0005004E00050010A01E183
:10323000C188E4CF00F0E4CFD9FF120000C0E5FF61
:10324000006A0201A9510201AA1901E1002A0050F5
:10325000D880E866D890006A00360050E4CF00F0CD
:103260001200400E0401096F400E0A6F060E0B6F2C
:10327000880E086F1C0E716E010E0201A96F02010B
:10328000AA6F1200896A8A6A400E8B6E926A936AEC
:10329000949094929494949C949E806A816A826A99
:1032A000120011EEFFF021EEFFF0F86AA68EA69C48
:1032B00099EC16F0EFEC18F0FFD7010EE56E0D0E4D
:1032C000E56EC9EC12F0E652E6521200A1AA06D051
:1032D0000FEC00F0689C6890A19A6A6A12002F0EA9
:1032E00092120A0EC16EBD0EC06E120001002A338A
:1032F0000000A002000003000000480E0401146F4B
:103300001A0E726E1200A19AA08AA28AF28EF28C14
:1033100012000F0EC16E070EB46E1200CB68040EC1
:10332000CA6E1200AAEC18F012000000000051EF63
:0433300019F012007E
:10400000D8CFE5FFE0CFE5FFE56EF3CFE5FFF4CFD6
:10401000E5FFE9CFE5FFEACFE5FFFACFE5FFFBCF0C
:10402000E5FFD9CFE5FFE1CFD9FFF6CFE5FFF7CF29
:10403000E5FFF8CFE5FFF5CFE5FFE4CFF5FFE4CFEF
:10404000F8FFE4CFF7FFE4CFF6FFE4CFD9FFE4CFEA
:10405000FBFFE4CFFAFFE4CFEAFFE4CFE9FFE4CFD0
:10406000F4FFE4CFF3FFE450E4CFE0FFE4CFD8FF68
:0240700010003E
:00000001FF
